{"address":"0x5FbDB2315678afecb367f032d93F642f64180aa3","bytecode":"0x60806040523480156200001157600080fd5b50604051620020fa380380620020fa833981810160405260408110156200003757600080fd5b81019080805160405193929190846401000000008211156200005857600080fd5b9083019060208201858111156200006e57600080fd5b82516401000000008111828201881017156200008957600080fd5b82525081516020918201929091019080838360005b83811015620000b85781810151838201526020016200009e565b50505050905090810190601f168015620000e65780820380516001836020036101000a031916815260200191505b50604052602001805160405193929190846401000000008211156200010a57600080fd5b9083019060208201858111156200012057600080fd5b82516401000000008111828201881017156200013b57600080fd5b82525081516020918201929091019080838360005b838110156200016a57818101518382015260200162000150565b50505050905090810190601f168015620001985780820380516001836020036101000a031916815260200191505b5060405250839150829050620001b56301ffc9a760e01b6200024a565b8151620001ca906006906020850190620002e8565b508051620001e0906007906020840190620002e8565b50620001f36380ac58cd60e01b6200024a565b62000205635b5e139f60e01b6200024a565b6200021763780e9d6360e01b6200024a565b5050604080518082019091526007815266697066733a2f2f60c81b60208201526200024290620002cf565b505062000394565b6001600160e01b03198082161415620002aa576040805162461bcd60e51b815260206004820152601c60248201527f4552433136353a20696e76616c696420696e7465726661636520696400000000604482015290519081900360640190fd5b6001600160e01b0319166000908152602081905260409020805460ff19166001179055565b8051620002e4906009906020840190620002e8565b5050565b828054600181600116156101000203166002900490600052602060002090601f0160209004810192826200032057600085556200036b565b82601f106200033b57805160ff19168380011785556200036b565b828001600101855582156200036b579182015b828111156200036b5782518255916020019190600101906200034e565b50620003799291506200037d565b5090565b5b808211156200037957600081556001016200037e565b611d5680620003a46000396000f3fe608060405234801561001057600080fd5b50600436106101165760003560e01c80634f6ccce7116100a257806395d89b411161007157806395d89b411461040a578063a22cb46514610412578063b88d4fde14610440578063c87b56dd14610506578063e985e9c51461052357610116565b80634f6ccce7146103a25780636352211e146103bf5780636c0360eb146103dc57806370a08231146103e457610116565b806318160ddd116100e957806318160ddd1461023a57806323b872dd146102545780632f745c591461028a5780633d02d0c9146102b657806342842e0e1461036c57610116565b806301ffc9a71461011b57806306fdde0314610156578063081812fc146101d3578063095ea7b31461020c575b600080fd5b6101426004803603602081101561013157600080fd5b50356001600160e01b031916610551565b604080519115158252519081900360200190f35b61015e610574565b6040805160208082528351818301528351919283929083019185019080838360005b83811015610198578181015183820152602001610180565b50505050905090810190601f1680156101c55780820380516001836020036101000a031916815260200191505b509250505060405180910390f35b6101f0600480360360208110156101e957600080fd5b503561060a565b604080516001600160a01b039092168252519081900360200190f35b6102386004803603604081101561022257600080fd5b506001600160a01b03813516906020013561066c565b005b610242610747565b60408051918252519081900360200190f35b6102386004803603606081101561026a57600080fd5b506001600160a01b03813581169160208101359091169060400135610758565b610242600480360360408110156102a057600080fd5b506001600160a01b0381351690602001356107af565b610242600480360360408110156102cc57600080fd5b6001600160a01b0382351691908101906040810160208201356401000000008111156102f757600080fd5b82018360208201111561030957600080fd5b8035906020019184600183028401116401000000008311171561032b57600080fd5b91908080601f0160208091040260200160405190810160405280939291908181526020018383808284376000920191909152509295506107da945050505050565b6102386004803603606081101561038257600080fd5b506001600160a01b03813581169160208101359091169060400135610808565b610242600480360360208110156103b857600080fd5b5035610823565b6101f0600480360360208110156103d557600080fd5b5035610839565b61015e610861565b610242600480360360208110156103fa57600080fd5b50356001600160a01b03166108c2565b61015e61092a565b6102386004803603604081101561042857600080fd5b506001600160a01b038135169060200135151561098b565b6102386004803603608081101561045657600080fd5b6001600160a01b0382358116926020810135909116916040820135919081019060808101606082013564010000000081111561049157600080fd5b8201836020820111156104a357600080fd5b803590602001918460018302840111640100000000831117156104c557600080fd5b91908080601f016020809104026020016040519081016040528093929190818152602001838380828437600092019190915250929550610a90945050505050565b61015e6004803603602081101561051c57600080fd5b5035610aee565b6101426004803603604081101561053957600080fd5b506001600160a01b0381358116916020013516610d6f565b6001600160e01b0319811660009081526020819052604090205460ff165b919050565b60068054604080516020601f60026000196101006001881615020190951694909404938401819004810282018101909252828152606093909290918301828280156106005780601f106105d557610100808354040283529160200191610600565b820191906000526020600020905b8154815290600101906020018083116105e357829003601f168201915b5050505050905090565b600061061582610d9d565b6106505760405162461bcd60e51b815260040180806020018281038252602c815260200180611c1f602c913960400191505060405180910390fd5b506000908152600460205260409020546001600160a01b031690565b600061067782610839565b9050806001600160a01b0316836001600160a01b031614156106ca5760405162461bcd60e51b8152600401808060200182810382526021815260200180611ccf6021913960400191505060405180910390fd5b806001600160a01b03166106dc610daa565b6001600160a01b031614806106fd57506106fd816106f8610daa565b610d6f565b6107385760405162461bcd60e51b8152600401808060200182810382526038815260200180611b726038913960400191505060405180910390fd5b6107428383610dae565b505050565b60006107536002610e1c565b905090565b610769610763610daa565b82610e27565b6107a45760405162461bcd60e51b8152600401808060200182810382526031815260200180611cf06031913960400191505060405180910390fd5b610742838383610ecb565b6001600160a01b03821660009081526001602052604081206107d19083611017565b90505b92915050565b60006107e6600a611023565b60006107f2600a61102c565b90506107fe8482611030565b6107d1818461104e565b61074283838360405180602001604052806000815250610a90565b6000806108316002846110b1565b509392505050565b60006107d482604051806060016040528060298152602001611bd460299139600291906110cd565b60098054604080516020601f60026000196101006001881615020190951694909404938401819004810282018101909252828152606093909290918301828280156106005780601f106105d557610100808354040283529160200191610600565b60006001600160a01b0382166109095760405162461bcd60e51b815260040180806020018281038252602a815260200180611baa602a913960400191505060405180910390fd5b6001600160a01b03821660009081526001602052604090206107d490610e1c565b60078054604080516020601f60026000196101006001881615020190951694909404938401819004810282018101909252828152606093909290918301828280156106005780601f106105d557610100808354040283529160200191610600565b610993610daa565b6001600160a01b0316826001600160a01b031614156109f9576040805162461bcd60e51b815260206004820152601960248201527f4552433732313a20617070726f766520746f2063616c6c657200000000000000604482015290519081900360640190fd5b8060056000610a06610daa565b6001600160a01b03908116825260208083019390935260409182016000908120918716808252919093529120805460ff191692151592909217909155610a4a610daa565b6001600160a01b03167f17307eab39ab6107e8899845ad3d59bd9653f200f220920489ca2b5937696c318360405180821515815260200191505060405180910390a35050565b610aa1610a9b610daa565b83610e27565b610adc5760405162461bcd60e51b8152600401808060200182810382526031815260200180611cf06031913960400191505060405180910390fd5b610ae8848484846110e4565b50505050565b6060610af982610d9d565b610b345760405162461bcd60e51b815260040180806020018281038252602f815260200180611ca0602f913960400191505060405180910390fd5b60008281526008602090815260408083208054825160026001831615610100026000190190921691909104601f810185900485028201850190935282815292909190830182828015610bc75780601f10610b9c57610100808354040283529160200191610bc7565b820191906000526020600020905b815481529060010190602001808311610baa57829003601f168201915b505050505090506000610bd8610861565b9050805160001415610bec5750905061056f565b815115610cad5780826040516020018083805190602001908083835b60208310610c275780518252601f199092019160209182019101610c08565b51815160209384036101000a600019018019909216911617905285519190930192850191508083835b60208310610c6f5780518252601f199092019160209182019101610c50565b6001836020036101000a038019825116818451168082178552505050505050905001925050506040516020818303038152906040529250505061056f565b80610cb785611136565b6040516020018083805190602001908083835b60208310610ce95780518252601f199092019160209182019101610cca565b51815160209384036101000a600019018019909216911617905285519190930192850191508083835b60208310610d315780518252601f199092019160209182019101610d12565b6001836020036101000a0380198251168184511680821785525050505050509050019250505060405160208183030381529060405292505050919050565b6001600160a01b03918216600090815260056020908152604080832093909416825291909152205460ff1690565b60006107d4600283611211565b3390565b600081815260046020526040902080546001600160a01b0319166001600160a01b0384169081179091558190610de382610839565b6001600160a01b03167f8c5be1e5ebec7d5bd14f71427d1e84f3dd0314c0f7b2291e5b200ac8c7c3b92560405160405180910390a45050565b60006107d48261102c565b6000610e3282610d9d565b610e6d5760405162461bcd60e51b815260040180806020018281038252602c815260200180611b46602c913960400191505060405180910390fd5b6000610e7883610839565b9050806001600160a01b0316846001600160a01b03161480610eb35750836001600160a01b0316610ea88461060a565b6001600160a01b0316145b80610ec35750610ec38185610d6f565b949350505050565b826001600160a01b0316610ede82610839565b6001600160a01b031614610f235760405162461bcd60e51b8152600401808060200182810382526029815260200180611c776029913960400191505060405180910390fd5b6001600160a01b038216610f685760405162461bcd60e51b8152600401808060200182810382526024815260200180611b226024913960400191505060405180910390fd5b610f73838383610742565b610f7e600082610dae565b6001600160a01b0383166000908152600160205260409020610fa0908261121d565b506001600160a01b0382166000908152600160205260409020610fc39082611229565b50610fd060028284611235565b5080826001600160a01b0316846001600160a01b03167fddf252ad1be2c89b69c2b068fc378daa952ba7f163c4a11628f55a4df523b3ef60405160405180910390a4505050565b60006107d1838361124b565b80546001019055565b5490565b61104a8282604051806020016040528060008152506112af565b5050565b61105782610d9d565b6110925760405162461bcd60e51b815260040180806020018281038252602c815260200180611c4b602c913960400191505060405180910390fd5b6000828152600860209081526040909120825161074292840190611a2c565b60008080806110c08686611301565b9097909650945050505050565b60006110da84848461137c565b90505b9392505050565b6110ef848484610ecb565b6110fb84848484611446565b610ae85760405162461bcd60e51b8152600401808060200182810382526032815260200180611af06032913960400191505060405180910390fd5b60608161115b57506040805180820190915260018152600360fc1b602082015261056f565b8160005b811561117357600101600a8204915061115f565b60008167ffffffffffffffff8111801561118c57600080fd5b506040519080825280601f01601f1916602001820160405280156111b7576020820181803683370190505b50859350905060001982015b831561120857600a840660300160f81b828280600190039350815181106111e657fe5b60200101906001600160f81b031916908160001a905350600a840493506111c3565b50949350505050565b60006107d183836115ae565b60006107d183836115c6565b60006107d1838361168c565b60006110da84846001600160a01b0385166116d6565b8154600090821061128d5760405162461bcd60e51b8152600401808060200182810382526022815260200180611ace6022913960400191505060405180910390fd5b82600001828154811061129c57fe5b9060005260206000200154905092915050565b6112b9838361176d565b6112c66000848484611446565b6107425760405162461bcd60e51b8152600401808060200182810382526032815260200180611af06032913960400191505060405180910390fd5b8154600090819083106113455760405162461bcd60e51b8152600401808060200182810382526022815260200180611bfd6022913960400191505060405180910390fd5b600084600001848154811061135657fe5b906000526020600020906002020190508060000154816001015492509250509250929050565b600082815260018401602052604081205482816114175760405162461bcd60e51b81526004018080602001828103825283818151815260200191508051906020019080838360005b838110156113dc5781810151838201526020016113c4565b50505050905090810190601f1680156114095780820380516001836020036101000a031916815260200191505b509250505060405180910390fd5b5084600001600182038154811061142a57fe5b9060005260206000209060020201600101549150509392505050565b600061145a846001600160a01b031661189b565b61146657506001610ec3565b6000611574630a85bd0160e11b61147b610daa565b88878760405160240180856001600160a01b03168152602001846001600160a01b0316815260200183815260200180602001828103825283818151815260200191508051906020019080838360005b838110156114e25781810151838201526020016114ca565b50505050905090810190601f16801561150f5780820380516001836020036101000a031916815260200191505b5095505050505050604051602081830303815290604052906001600160e01b0319166020820180516001600160e01b038381831617835250505050604051806060016040528060328152602001611af0603291396001600160a01b03881691906118a1565b9050600081806020019051602081101561158d57600080fd5b50516001600160e01b031916630a85bd0160e11b1492505050949350505050565b60009081526001919091016020526040902054151590565b6000818152600183016020526040812054801561168257835460001980830191908101906000908790839081106115f957fe5b906000526020600020015490508087600001848154811061161657fe5b60009182526020808320909101929092558281526001898101909252604090209084019055865487908061164657fe5b600190038181906000526020600020016000905590558660010160008781526020019081526020016000206000905560019450505050506107d4565b60009150506107d4565b600061169883836115ae565b6116ce575081546001818101845560008481526020808220909301849055845484825282860190935260409020919091556107d4565b5060006107d4565b60008281526001840160205260408120548061173b5750506040805180820182528381526020808201848152865460018181018955600089815284812095516002909302909501918255915190820155865486845281880190925292909120556110dd565b8285600001600183038154811061174e57fe5b90600052602060002090600202016001018190555060009150506110dd565b6001600160a01b0382166117c8576040805162461bcd60e51b815260206004820181905260248201527f4552433732313a206d696e7420746f20746865207a65726f2061646472657373604482015290519081900360640190fd5b6117d181610d9d565b15611823576040805162461bcd60e51b815260206004820152601c60248201527f4552433732313a20746f6b656e20616c7265616479206d696e74656400000000604482015290519081900360640190fd5b61182f60008383610742565b6001600160a01b03821660009081526001602052604090206118519082611229565b5061185e60028284611235565b5060405181906001600160a01b038416906000907fddf252ad1be2c89b69c2b068fc378daa952ba7f163c4a11628f55a4df523b3ef908290a45050565b3b151590565b60606110da8484600085856118b58561189b565b611906576040805162461bcd60e51b815260206004820152601d60248201527f416464726573733a2063616c6c20746f206e6f6e2d636f6e7472616374000000604482015290519081900360640190fd5b600080866001600160a01b031685876040518082805190602001908083835b602083106119445780518252601f199092019160209182019101611925565b6001836020036101000a03801982511681845116808217855250505050505090500191505060006040518083038185875af1925050503d80600081146119a6576040519150601f19603f3d011682016040523d82523d6000602084013e6119ab565b606091505b50915091506119bb8282866119c6565b979650505050505050565b606083156119d55750816110dd565b8251156119e55782518084602001fd5b60405162461bcd60e51b81526020600482018181528451602484015284518593919283926044019190850190808383600083156113dc5781810151838201526020016113c4565b828054600181600116156101000203166002900490600052602060002090601f016020900481019282611a625760008555611aa8565b82601f10611a7b57805160ff1916838001178555611aa8565b82800160010185558215611aa8579182015b82811115611aa8578251825591602001919060010190611a8d565b50611ab4929150611ab8565b5090565b5b80821115611ab45760008155600101611ab956fe456e756d657261626c655365743a20696e646578206f7574206f6620626f756e64734552433732313a207472616e7366657220746f206e6f6e20455243373231526563656976657220696d706c656d656e7465724552433732313a207472616e7366657220746f20746865207a65726f20616464726573734552433732313a206f70657261746f7220717565727920666f72206e6f6e6578697374656e7420746f6b656e4552433732313a20617070726f76652063616c6c6572206973206e6f74206f776e6572206e6f7220617070726f76656420666f7220616c6c4552433732313a2062616c616e636520717565727920666f7220746865207a65726f20616464726573734552433732313a206f776e657220717565727920666f72206e6f6e6578697374656e7420746f6b656e456e756d657261626c654d61703a20696e646578206f7574206f6620626f756e64734552433732313a20617070726f76656420717565727920666f72206e6f6e6578697374656e7420746f6b656e4552433732314d657461646174613a2055524920736574206f66206e6f6e6578697374656e7420746f6b656e4552433732313a207472616e73666572206f6620746f6b656e2074686174206973206e6f74206f776e4552433732314d657461646174613a2055524920717565727920666f72206e6f6e6578697374656e7420746f6b656e4552433732313a20617070726f76616c20746f2063757272656e74206f776e65724552433732313a207472616e736665722063616c6c6572206973206e6f74206f776e6572206e6f7220617070726f766564a2646970667358221220428a510068e8748e7c80287f6343ddb7e041ddc25b06d98ce6f0d7aab989041664736f6c63430007060033","abi":[{"inputs":[{"internalType":"string","name":"tokenName","type":"string"},{"internalType":"string","name":"symbol","type":"string"}],"stateMutability":"nonpayable","type":"constructor"},{"anonymous":false,"inputs":[{"indexed":true,"internalType":"address","name":"owner","type":"address"},{"indexed":true,"internalType":"address","name":"approved","type":"address"},{"indexed":true,"internalType":"uint256","name":"tokenId","type":"uint256"}],"name":"Approval","type":"event"},{"anonymous":false,"inputs":[{"indexed":true,"internalType":"address","name":"owner","type":"address"},{"indexed":true,"internalType":"address","name":"operator","type":"address"},{"indexed":false,"internalType":"bool","name":"approved","type":"bool"}],"name":"ApprovalForAll","type":"event"},{"anonymous":false,"inputs":[{"indexed":true,"internalType":"address","name":"from","type":"address"},{"indexed":true,"internalType":"address","name":"to","type":"address"},{"indexed":true,"internalType":"uint256","name":"tokenId","type":"uint256"}],"name":"Transfer","type":"event"},{"inputs":[{"internalType":"address","name":"to","type":"address"},{"internalType":"uint256","name":"tokenId","type":"uint256"}],"name":"approve","outputs":[],"stateMutability":"nonpayable","type":"function"},{"inputs":[{"internalType":"address","name":"owner","type":"address"}],"name":"balanceOf","outputs":[{"internalType":"uint256","name":"","type":"uint256"}],"stateMutability":"view","type":"function"},{"inputs":[],"name":"baseURI","outputs":[{"internalType":"string","name":"","type":"string"}],"stateMutability":"view","type":"function"},{"inputs":[{"internalType":"uint256","name":"tokenId","type":"uint256"}],"name":"getApproved","outputs":[{"internalType":"address","name":"","type":"address"}],"stateMutability":"view","type":"function"},{"inputs":[{"internalType":"address","name":"owner","type":"address"},{"internalType":"address","name":"operator","type":"address"}],"name":"isApprovedForAll","outputs":[{"internalType":"bool","name":"","type":"bool"}],"stateMutability":"view","type":"function"},{"inputs":[{"internalType":"address","name":"owner","type":"address"},{"internalType":"string","name":"metadataURI","type":"string"}],"name":"mintToken","outputs":[{"internalType":"uint256","name":"","type":"uint256"}],"stateMutability":"nonpayable","type":"function"},{"inputs":[],"name":"name","outputs":[{"internalType":"string","name":"","type":"string"}],"stateMutability":"view","type":"function"},{"inputs":[{"internalType":"uint256","name":"tokenId","type":"uint256"}],"name":"ownerOf","outputs":[{"internalType":"address","name":"","type":"address"}],"stateMutability":"view","type":"function"},{"inputs":[{"internalType":"address","name":"from","type":"address"},{"internalType":"address","name":"to","type":"address"},{"internalType":"uint256","name":"tokenId","type":"uint256"}],"name":"safeTransferFrom","outputs":[],"stateMutability":"nonpayable","type":"function"},{"inputs":[{"internalType":"address","name":"from","type":"address"},{"internalType":"address","name":"to","type":"address"},{"internalType":"uint256","name":"tokenId","type":"uint256"},{"internalType":"bytes","name":"_data","type":"bytes"}],"name":"safeTransferFrom","outputs":[],"stateMutability":"nonpayable","type":"function"},{"inputs":[{"internalType":"address","name":"operator","type":"address"},{"internalType":"bool","name":"approved","type":"bool"}],"name":"setApprovalForAll","outputs":[],"stateMutability":"nonpayable","type":"function"},{"inputs":[{"internalType":"bytes4","name":"interfaceId","type":"bytes4"}],"name":"supportsInterface","outputs":[{"internalType":"bool","name":"","type":"bool"}],"stateMutability":"view","type":"function"},{"inputs":[],"name":"symbol","outputs":[{"internalType":"string","name":"","type":"string"}],"stateMutability":"view","type":"function"},{"inputs":[{"internalType":"uint256","name":"index","type":"uint256"}],"name":"tokenByIndex","outputs":[{"internalType":"uint256","name":"","type":"uint256"}],"stateMutability":"view","type":"function"},{"inputs":[{"internalType":"address","name":"owner","type":"address"},{"internalType":"uint256","name":"index","type":"uint256"}],"name":"tokenOfOwnerByIndex","outputs":[{"internalType":"uint256","name":"","type":"uint256"}],"stateMutability":"view","type":"function"},{"inputs":[{"internalType":"uint256","name":"tokenId","type":"uint256"}],"name":"tokenURI","outputs":[{"internalType":"string","name":"","type":"string"}],"stateMutability":"view","type":"function"},{"inputs":[],"name":"totalSupply","outputs":[{"internalType":"uint256","name":"","type":"uint256"}],"stateMutability":"view","type":"function"},{"inputs":[{"internalType":"address","name":"from","type":"address"},{"internalType":"address","name":"to","type":"address"},{"internalType":"uint256","name":"tokenId","type":"uint256"}],"name":"transferFrom","outputs":[],"stateMutability":"nonpayable","type":"function"}]}